:100000000C9462000C948A000C948A000C948A0070
:100010000C948A000C948A000C948A000C948A0038
:100020000C948A000C948A000C948A000C948A0028
:100030000C948A000C948A000C948A000C948A0018
:100040000C948A040C948A000C948A000C948A0004
:100050000C948A000C948A000C948A000C948A00F8
:100060000C94D4040C948A000000000024002700A3
:100070002A0000000000250028002B0000000000DE
:1000800023002600290004040404040404040202DA
:100090000202020203030303030301020408102007
:1000A0004080010204081020010204081020000012
:1000B0000008000201000003040700000000000027
:1000C0000000870711241FBECFEFD8E0DEBFCDBFF1
:1000D00011E0A0E0B1E0E2E5F9E102C005900D9287
:1000E000AC3BB107D9F722E0ACEBB1E001C01D9207
:1000F000A539B207E1F710E0C2E6D0E004C02197CD
:10010000FE010E94B909C136D107C9F70E94F30563
:100110000C94A70C0C940000833081F028F48130FB
:1001200099F08230A9F008958730A9F08830C9F09D
:100130008430B1F4809180008F7D03C08091800075
:100140008F7780938000089584B58F7784BD08955C
:1001500084B58F7DFBCF8091B0008F778093B00006
:1001600008958091B0008F7DF9CFCF93DF93282F32
:1001700030E0F901E255FF4F8491F901E656FF4F57
:10018000D491F901EA57FF4FC491CC23A1F081111A
:100190000E948C00EC2FF0E0EE0FFF1FE458FF4FA1
:1001A000A591B491EC91ED2381E090E009F480E019
:1001B000DF91CF91089580E090E0FACF1F93CF9325
:1001C000DF93282F30E0F901E255FF4F8491F901C8
:1001D000E656FF4FD491F901EA57FF4FC491CC2363
:1001E000A9F0162F81110E948C00EC2FF0E0EE0F89
:1001F000FF1FEE58FF4FA591B4918FB7F894EC9183
:10020000111108C0D095DE23DC938FBFDF91CF9111
:100210001F910895DE2BF8CFCF93DF9390E0FC0180
:10022000E656FF4F24918A579F4FFC018491882303
:10023000D1F090E0880F991FFC01E859FF4FA5917C
:10024000B491FC01EE58FF4FC591D49161110EC0DD
:100250009FB7F8948C91E22FE0958E238C932881A0
:10026000E223E8839FBFDF91CF9108958FB7F89481
:10027000EC91E22BEC938FBFF6CF3FB7F8948091CF
:10028000910290919202A0919302B091940226B5AE
:10029000A89B05C02F3F19F00196A11DB11D3FBFBE
:1002A000BA2FA92F982F8827BC01CD01620F711D8D
:1002B000811D911D42E0660F771F881F991F4A9587
:1002C000D1F70895E0916E02F0916F02309729F016
:1002D000109269021092680209940895CF93DF93F7
:1002E000AC01E0916C02F0916D023097F1F09091C9
:1002F0006B0280916A029817C0F090E0292F30E0DD
:100300002617370754F4D901AF5BBD4F240F351FB3
:10031000E90128812C939F5FF1CF10926B026093CB
:100320006A02CB01DF91CF910994DF91CF910895BB
:100330000895E0916B0280916A02E81730F4F0E0D2
:10034000EF5BFD4F808190E008958FEF9FEF089560
:1003500090916B0280916A022FEF3FEF981748F45B
:10036000E92FF0E0EF5BFD4F208130E09F5F90933D
:100370006B02C901089580916A0290916B02891BFA
:10038000990B089590E080E0089585ED8093BC007E
:100390008091BC0084FDFCCF1092670208952091EB
:1003A000FA01260F3327331F21323105ECF4209157
:1003B0006702FC0190E080E0243069F082E008955B
:1003C000A091FA012191AC0146525E4FA40FB52FC6
:1003D000B11D2C930196861798F38091FA01680F4E
:1003E0006093FA0180E0089581E00895CF93DF9350
:1003F000CB01EA01642F0E94CF01CE01DF91CF91A2
:100400000895CF93DF931F92CDB7DEB7698361E084
:10041000CE0101960E94CF0181E090E00F90DF9124
:10042000CF9108958091D8019091D90161E0892BF5
:1004300009F460E08BE00E94DE00109281021092CD
:10044000800208958091D8019091D901892B79F08B
:1004500061E08CE00E94DE0081E090E09093D701A3
:100460008093D60110927F0210927E02089560E080
:100470008CE00E94DE001092D7011092D601F2CFDC
:100480008091D8019091D901892B79F061E08DE0BC
:100490000E94DE0081E090E09093D5018093D4012A
:1004A00010927D0210927C02089560E08DE00E941F
:1004B000DE001092D5011092D401F2CFCF93DF93DA
:1004C00089E00E94B500EC0188E00E94B500CD2BC8
:1004D00039F082E090E0909305018093040106C01A
:1004E000892B49F0109205011092040190E080E000
:1004F000DF91CF91089581E090E0EDCFCF92DF9230
:10050000EF92FF92CF93DF938091D4019091D50128
:10051000892B09F47EC060E070E080E09FE32091C9
:10052000D6013091D701232B31F020E030E040E0BC
:100530005FE30E94F307209104013091050121152A
:10054000310509F46AC02230310509F46DC02DEC83
:100550003CEC4CEC5DE30E942409209100013091B9
:10056000010140910201509103010E94F4076B01C7
:100570007C01C0920001D0920101E0920201F09250
:1005800003010E9460087093D3016093D20120E0C0
:1005900030E040E251E4C701B6010E9424090E9404
:1005A0006008CB016AE070E00E9491099093D1014C
:1005B0008093D001C701B6010E9460089B01AC0185
:1005C0002852310941095109AFEFB0E00E94B70745
:1005D0002EE130E040E050E00E949807CA01B901E6
:1005E0000E9498080E9460086B01EB0161E08AE0BC
:1005F0000E940C012097F9F460E08AE00E94DE007E
:1006000090E080E0DF91CF91FF90EF90DF90CF906E
:10061000089560E070E0CB0182CF20E030E040E858
:100620005EE30E94F40793CF20E030E040E85EE311
:100630000E94F3078CCFCF3FD10511F461E0DDCFED
:10064000E8EBF0E0E491E33019F140F4E130B1F08F
:10065000E230C9F0C038D1058CF7CECFE73011F1C8
:10066000E83041F1E430B1F78091800080628093FE
:100670008000D0928B00C0928A00C2CF84B580687F
:1006800084BDC7BCBDCF84B5806284BDC8BCB8CFB3
:1006900080918000806880938000D0928900C09211
:1006A0008800AECF8091B00080688093B000C09287
:1006B000B300A6CF8091B00080628093B000C0925A
:1006C000B4009ECF66EC71E088E191E00E94BF0922
:1006D000892B69F58091D1018F938091D0018F93FF
:1006E0008091D3018F938091D2018F9382E291E028
:1006F0009F938F938CEB91E09F938F930E94CF09F0
:100700008DB79EB708960FB6F8949EBF0FBE8DBFEB
:100710004CEB51E0FA0101900020E9F7AF014D5B8D
:1007200051406CEB71E080E792E00C94F60166ECCE
:1007300071E08FE291E00E94BF09892B89F481E08A
:1007400090E090937D0280937C029093D9018093F6
:10075000D80169E371E08CEB91E00E94C809D8CF21
:1007600066EC71E083E491E00E94BF09892B59F4A3
:1007700081E090E090937D0280937C021092D901F9
:100780001092D801E6CF66EC71E08DE491E00E9412
:10079000BF09892B69F481E090E090937F028093F8
:1007A0007E029093D9018093D80167E571E0D3CFA1
:1007B00066EC71E081E691E00E94BF09892B59F453
:1007C00081E090E090937F0280937E021092D901A5
:1007D0001092D801EACF66EC71E08BE691E00E94BE
:1007E000BF09892B69F481E090E0909381028093A6
:1007F00080029093D9018093D80165E771E0ABCF77
:1008000066EC71E08FE791E00E94BF09892B59F4F3
:1008100081E090E090938102809380021092D90150
:100820001092D801EACF66EC71E089E891E00E946D
:10083000BF09892BB1F480910401909105018130A9
:10084000910549F08230910549F063E971E0892B07
:1008500009F05ECF80CF6DE971E07DCF67EA71E08E
:100860007ACF61EB71E077CFBF92CF92DF92EF92B8
:10087000FF920F931F93CF93DF9300916A0210E0D2
:1008800080916B029801281B310929303105C4F091
:10089000D0E0C0E089E0E82EF12C96ECC92E91E082
:1008A000D92E29E0B22E80916B029801281B3109C4
:1008B000C7018C1B9D0B2817390764F41092CF01D8
:1008C000DF91CF911F910F91FF90EF90DF90CF902C
:1008D000BF90089580E792E00E94A801FE01EA53CC
:1008E000FE4F8083C830D10581F08A3071F461EB0E
:1008F00071E08CEB91E00E94C809F6012B2D11925A
:100900002A95E9F7D0E0C0E0CECF2196C930D105D5
:1009100051F6D4CF1F920F920FB60F9211242F933E
:100920003F938F939F93AF93BF9380918D0290914C
:100930008E02A0918F02B091900230918C0223E040
:10094000230F2D3758F50196A11DB11D20938C0260
:1009500080938D0290938E02A0938F02B0939002A9
:100960008091910290919202A0919302B091940291
:100970000196A11DB11D8093910290939202A093C4
:100980009302B0939402BF91AF919F918F913F9149
:100990002F910F900FBE0F901F90189526E8230FF0
:1009A0000296A11DB11DD2CF1F920F920FB60F92CA
:1009B00011242F933F934F935F936F937F938F9364
:1009C0009F93AF93BF93EF93FF938091B900887F7C
:1009D000803609F44AC0F0F5883209F4A7C018F54A
:1009E000803109F49BC0B8F4882309F4F9C0883039
:1009F00009F494C0FF91EF91BF91AF919F918F91B6
:100A00007F916F915F914F913F912F910F900FBE0A
:100A10000F901F901895883109F488C0803251F7E3
:100A200080931D0214C0803409F49DC040F48033CB
:100A3000B9F38833F9F680931D0285ECB0C0803598
:100A400009F485C0883509F496C0883499F60E9467
:100A5000C501D0CF883909F48CC038F5883729F022
:100A600050F4883611F0803729F683E080936702CE
:100A700010921C0257C0883809F47BC0803919F0E5
:100A8000803809F0B7CF80911C02803208F071C025
:100A9000E0911C0281E08E0F80931C028091BB00CC
:100AA000F0E0E450FE4F80833DC0803B39F0E0F43D
:100AB000803A09F479C0883A09F09CCF84E08093A9
:100AC00067021092FB011092FA01E0916302F0912B
:100AD000640209958091FA0181110FC081E0809331
:100AE000FA011092DA0109C0803C09F4A6CF883CD3
:100AF00009F4A3CF883B09F07DCFE091FB0181E0B1
:100B00008E0F8093FB01F0E0E652FE4F80818093D0
:100B1000BB009091FB018091FA0129C080914002B5
:100B20008093BB0085EC8093BC0064CF90913F0222
:100B300080913E02981758F5E0913F0281E08E0FB8
:100B400080933F02F0E0E25EFD4F8081E9CFE091CB
:100B50003F0281E08E0F80933F028091BB00F0E066
:100B6000E25EFD4F808390913F0280913E02981794
:100B7000C8F285E8D8CFE0913F0281E08E0F8093E4
:100B80003F028091BB00F0E0E25EFD4F80838091E8
:100B9000660281115CCF81E08093650284EA8093D4
:100BA000BC001092670226CF85EC8093BC001092A7
:100BB000670280911C02803230F4E0911C02F0E068
:100BC000E450FE4F108260911C0270E0E0916102DF
:100BD000F09162028CEF91E0099510921C020ACF0D
:100BE00010921D0234CFCF93DF9300D000D0CDB749
:100BF000DEB7789484B5826084BD84B5816084BD9D
:100C000085B5826085BD85B5816085BD80916E00AA
:100C1000816080936E0010928100809181008260DB
:100C20008093810080918100816080938100809118
:100C300080008160809380008091B1008460809307
:100C4000B1008091B00081608093B00080917A0003
:100C5000846080937A0080917A00826080937A0029
:100C600080917A00816080937A0080917A00806818
:100C700080937A001092C1000E943D016093860229
:100C800070938702809388029093890210926B027E
:100C900010926A0210926902109268021092670222
:100CA00081E0809366021092650261E082E10E9419
:100CB000DE0061E083E10E94DE008091B9008E7F5A
:100CC0008093B9008091B9008D7F8093B90088E44A
:100CD0008093B80085E48093BC0082E691E0909315
:100CE0006402809363028EE691E0909362028093A7
:100CF00061028CE08093BA0084E394E090936D02EB
:100D000080936C0282E693E090936F0280936E0270
:100D100061E08DE00E940C0161E08CE00E940C011A
:100D200061E08BE00E940C0161E08AE00E940C010E
:100D300060E089E00E940C0160E088E00E940C0104
:100D400002E010E0E0908A02F0908B02E114F104DE
:100D500009F482C021E0E216F10409F47DC0C70164
:100D60000196B8010E94910990938B0280938A02A8
:100D70000E943D0140908602509087026090880258
:100D800070908902461657066806790608F082C0F8
:100D9000641975098609970960938202709383022A
:100DA00080938402909385028091820290918302C5
:100DB000A0918402B091850220EAC22E26E8D22EAC
:100DC000EE24E394F12CC81AD90AEA0AFB0AC0926D
:100DD0008202D0928302E0928402F09285021C1477
:100DE0001D041E041F040CF08AC0C701B60128EEC2
:100DF00033E040E050E00E94980749015A010E9408
:100E00003D0169837A838B839C8381149104A104BF
:100E1000B10409F452C00E943D0129813A814B81FD
:100E20005C81621B730B840B950B683E73408105DC
:100E3000910558F331E0831A9108A108B10889811E
:100E40009A81AB81BC8188519C4FAF4FBF4F898342
:100E50009A83AB83BC83D9CF0E947E020E945E023C
:100E600080917C0290917D02892B11F00E944002BA
:100E700080917E0290917F02892B11F00E942202C4
:100E80008091800290918102892B09F468CF0E94A1
:100E9000120265CF73016201C094D094E094F09483
:100EA000C60ED71EE81EF91EC0928202D09283029F
:100EB000E0928402F092850277CFC701B60128EE56
:100EC00033E040E050E00E9498076230710548F03E
:100ED000660F771F660F771F65507109CB01019769
:100EE000F1F7D301C20180569947AE4FBF4F8093AF
:100EF000860290938702A0938802B093890240E013
:100F000050E0452B09F41ECF0E9400001BCFE0E704
:100F1000F2E01382128288EE93E0A0E0B0E08483D6
:100F20009583A683B7838AE091E0918380830895B7
:100F3000052E97FB1EF400940E94AF0757FD07D0C3
:100F40000E94C20707FC03D04EF40C94AF075095E3
:100F50004095309521953F4F4F4F5F4F08959095A5
:100F60008095709561957F4F8F4F9F4F08950E9498
:100F7000E407A59F900DB49F900DA49F800D911D37
:100F800011240895A1E21A2EAA1BBB1BFD010DC05E
:100F9000AA1FBB1FEE1FFF1FA217B307E407F50729
:100FA00020F0A21BB30BE40BF50B661F771F881F05
:100FB000991F1A9469F760957095809590959B019B
:100FC000AC01BD01CF010895A29FB001B39FC00144
:100FD000A39F700D811D1124911DB29F700D811D65
:100FE0001124911D08955058BB27AA270E940B0871
:100FF0000C94EA080E94DC0838F00E94E30820F014
:1010000039F49F3F19F426F40C94D9080EF4E095B6
:10101000E7FB0C94D308E92F0E94FB0858F3BA179A
:10102000620773078407950720F079F4A6F50C94FE
:101030001D090EF4E0950B2EBA2FA02D0B01B9015E
:1010400090010C01CA01A0011124FF27591B99F03E
:10105000593F50F4503E68F11A16F040A22F232F4A
:10106000342F4427585FF3CF469537952795A7959A
:10107000F0405395C9F77EF41F16BA0B620B730B41
:10108000840BBAF09150A1F0FF0FBB1F661F771FB2
:10109000881FC2F70EC0BA0F621F731F841F48F467
:1010A000879577956795B795F7959E3F08F0B0CFF0
:1010B0009395880F08F09927EE0F979587950895D7
:1010C0000E9467086894B1110C941E0908950E944B
:1010D000030988F09F5798F0B92F9927B751B0F0BE
:1010E000E1F0660F771F881F991F1AF0BA95C9F7AC
:1010F00014C0B13091F00E941D09B1E008950C9424
:101100001D09672F782F8827B85F39F0B93FCCF3D6
:10111000869577956795B395D9F73EF49095809528
:10112000709561957F4F8F4F9F4F0895E89409C048
:1011300097FB3EF490958095709561957F4F8F4F0A
:101140009F4F9923A9F0F92F96E9BB279395F69520
:10115000879577956795B795F111F8CFFAF4BB0F9E
:1011600011F460FF1BC06F5F7F4F8F4F9F4F16C002
:10117000882311F096E911C0772321F09EE8872F8C
:10118000762F05C0662371F096E8862F70E060E048
:101190002AF09A95660F771F881FDAF7880F9695C1
:1011A000879597F9089597F99F6780E870E060E068
:1011B00008959FEF80EC089500240A9416161706F0
:1011C00018060906089500240A9412161306140638
:1011D00005060895092E0394000C11F4882352F09B
:1011E000BB0F40F4BF2B11F460FF04C06F5F7F4F53
:1011F0008F4F9F4F089557FD9058440F551F59F03A
:101200005F3F71F04795880F97FB991F61F09F3FF3
:1012100079F087950895121613061406551FF2CF1C
:101220004695F1DF08C0161617061806991FF1CF6C
:1012300086957105610508940895E894BB27662793
:101240007727CB0197F908950E9437090C94EA0893
:101250000E94DC0838F00E94E30820F0952311F08A
:101260000C94D3080C94D90811240C941E090E94E4
:10127000FB0870F3959FC1F3950F50E0551F629FD7
:10128000F001729FBB27F00DB11D639FAA27F00DDF
:10129000B11DAA1F649F6627B00DA11D661F829F06
:1012A0002227B00DA11D621F739FB00DA11D621FEB
:1012B000839FA00D611D221F749F3327A00D611D08
:1012C000231F849F600D211D822F762F6A2F1124EA
:1012D0009F5750409AF0F1F088234AF0EE0FFF1F1D
:1012E000BB1F661F771F881F91505040A9F79E3F74
:1012F000510580F00C94D3080C941E095F3FE4F371
:10130000983ED4F3869577956795B795F795E795C9
:101310009F5FC1F7FE2B880F911D9695879597F9D2
:10132000089597FB072E16F4009407D077FD09D097
:101330000E94A50907FC05D03EF4909581959F4F2A
:101340000895709561957F4F0895AA1BBB1B51E1CD
:1013500007C0AA1FBB1FA617B70710F0A61BB70B25
:10136000881F991F5A95A9F780959095BC01CD01CA
:101370000895EE0FFF1F0590F491E02D0994FB01F5
:10138000DC018D91019080190110D9F3990B08951A
:10139000FB01DC0101900D920020E1F70895AEE021
:1013A000B0E0E5EDF9E00C947E0C0D891E8986E035
:1013B0008C831A8309838FEF9FE79E838D83AE0111
:1013C000475E5F4F6F89788DCE0101960E94F209CA
:1013D0002F813885020F131FF80110822E96E4E04A
:1013E0000C949A0CABE0B0E0E8EFF9E00C94700CD0
:1013F0007C013B018A01FC0117821682838181FFF7
:10140000C8C1CE0101965C01F7019381F30193FD00
:10141000859193FF81913F01882309F453C185325F
:1014200039F493FD859193FF81913F01853229F431
:10143000B70190E00E94E20BE7CF912C212C312CD8
:10144000FFE1F31538F08B3211F190F4803209F19D
:10145000833229F137FC3CC020ED280F2A3050F5AB
:1014600036FE20C08AE0989E200D1124922E06C0E0
:101470008D3291F0803371F7689430F8F30193FD69
:10148000859193FF81913F018111DACF21C068944A
:1014900031F8689432F8F2CF689433F8EFCF68945B
:1014A00034F8ECCFEAE02E9E200D1124222E689411
:1014B00035F8E4CF8E3229F436FC04C1689436F84E
:1014C000DDCF8C3619F4689437F8D8CF8836B1F26E
:1014D000982F9F7D95549330E0F08336A1F18337A8
:1014E000C1F1833509F063C02801F2E04F0E511CB1
:1014F000F801C080D180692D70E036FC02C06FEF2A
:101500007FEFC6010E94CC0B4C01689437F8820132
:101510000AC00C5F1F4FFFE3F98388248394912C4A
:101520006501E89437F833FE2DC0522C81149104E4
:1015300071F5552009F468CFB70180E290E00E9470
:10154000E20B5A94F6CFF801808189830E5F1F4F1A
:10155000E4CF2801F2E04F0E511CF801C080D18089
:10156000692D70E036FC02C06FEF7FEFC6010E946C
:10157000D70B4C018201D5CFB70180E290E00E94E9
:10158000E20B2A942814190409F0B0F7CECFF60123
:1015900037FC859137FE81916F01B70190E00E9481
:1015A000E20B51105A94F1E08F1A9108BFCF8436A4
:1015B00019F0893609F077C0F80137FE6BC06081F9
:1015C0007181828193810C5F1F4FF32DFF763F2E37
:1015D00097FF09C090958095709561957F4F8F4FCB
:1015E0009F4F689437F82AE030E0A5010E94120C62
:1015F000C82ECA188C2C432C36FE0CC0E89440F838
:10160000C91440F434FE05C032FC03C0F32DFE7E45
:101610004F2E892C44FE95C0FE01EC0DF11D8081FA
:10162000803309F087C0242D297E422E842D8870B6
:10163000582E43FC95C040FE8FC09C2C821418F499
:101640002C0C922C981844FE91C0B70180E390E0D6
:101650000E94E20B42FE09C088E790E041FE02C012
:1016600088E590E0B7010E94E20BC91408F48AC033
:10167000CA94D12C9FEFC91AD90ACA0CDB1CF601F7
:1016800082916F01B70190E00E94E20BAC14BD049F
:10169000B1F74FCF60817181072E000C880B990B39
:1016A0000E5F1F4F92CFD32CE894D4F82AE030E09D
:1016B000853739F1232D297FD22E8F3601F148F459
:1016C0008835A9F0F701868197812B96E2E10C9489
:1016D0008C0C803749F08837A9F7D4FE02C0689493
:1016E000D2F820E130E00DC06894D4F8F6CF34FE93
:1016F00003C0822F8660D82E20E132E002C028E0AD
:1017000030E0F801D7FE0FC0608171818281938142
:101710000C5F1F4FA5010E94120CC82ECA183D2C49
:10172000E89437F867CF6081718190E080E00E5FC8
:101730001F4FF0CF42FC02C0839478CF83948394F0
:1017400075CF842D867809F471CFF6CFB70180E28A
:1017500090E00E94E20B83948214C0F3512C73CF6B
:10176000522C5818821408F46ECFF8CF842D867846
:1017700009F47BCF8BE241FE80E247FC8DE2B701AA
:1017800090E071CFB70180E390E00E94E20B9A9461
:101790006CCF8FEF9FEF99CFFC01059061507040A7
:1017A0000110D8F7809590958E0F9F1F0895FC012A
:1017B0006150704001900110D8F7809590958E0F80
:1017C0009F1F08950F931F93CF93DF93182F092F17
:1017D000EB018B8181FD09C01FEF0FEF812F902F4F
:1017E000DF91CF911F910F91089582FF14C02E8138
:1017F0003F818C819D81281739073CF4E881F9816C
:10180000CF0101969983888310838E819F810196F1
:101810009F838E83E3CFE885F985812F0995892BF6
:10182000A1F3DACFFA01AA27283051F1203181F152
:10183000E8946F936E7F6E5F7F4F8F4F9F4FAF4FD8
:10184000B1E03ED0B4E03CD0670F781F891F9A1FEB
:10185000A11D680F791F8A1F911DA11D6A0F711D9F
:10186000811D911DA11D20D009F468943F912AE0AB
:10187000269F11243019305D3193DEF6CF01089593
:10188000462F4770405D4193B3E00FD0C9F7F6CFC4
:10189000462F4F70405D4A3318F0495D31FD40528C
:1018A000419302D0A9F7EACFB4E0A6959795879522
:1018B00077956795BA95C9F7009761057105089501
:1018C0009B01AC010A2E06945795479537952795AD
:1018D000BA95C9F7620F731F841F951FA01D089545
:1018E0002F923F924F925F926F927F928F929F9230
:1018F000AF92BF92CF92DF92EF92FF920F931F931E
:10190000CF93DF93CDB7DEB7CA1BDB0B0FB6F894CE
:10191000DEBF0FBECDBF09942A88398848885F840E
:101920006E847D848C849B84AA84B984C884DF807F
:10193000EE80FD800C811B81AA81B981CE0FD11D63
:101940000FB6F894DEBF0FBECDBFED010895F89439
:02195000FFCFC7
:1019520000005C420100000000000102F601C20129
:101962009801BB01A80199015350443A20524551B4
:101972000A005350443A253032642E25640A004747
:1019820041533A205345540A004741533A20204FCD
:101992004B0A004741533A20434C520A0042524BF1
:1019A2003A205345540A0042524B3A20204F4B0AE8
:1019B2000042524B3A20434C520A004D49583A20B9
:1019C2005345540A004D49583A20204F4B0A004DC6
:1019D20049583A20434C520A00534C503A2052453F
:1019E200510A00534C503A444F574E0A00534C5040
:1019F2003A464C41540A00534C503A202055500A62
:0C1A0200004D53473A204552520A0000A4
:00000001FF
